{
  "contractName": "Voting",
  "abi": [
    {
      "anonymous": false,
      "inputs": [
        {
          "indexed": true,
          "internalType": "address",
          "name": "previousOwner",
          "type": "address"
        },
        {
          "indexed": true,
          "internalType": "address",
          "name": "newOwner",
          "type": "address"
        }
      ],
      "name": "OwnershipTransferred",
      "type": "event"
    },
    {
      "anonymous": false,
      "inputs": [
        {
          "indexed": false,
          "internalType": "uint256",
          "name": "proposalId",
          "type": "uint256"
        }
      ],
      "name": "ProposalRegistered",
      "type": "event"
    },
    {
      "anonymous": false,
      "inputs": [
        {
          "indexed": false,
          "internalType": "address",
          "name": "voter",
          "type": "address"
        },
        {
          "indexed": false,
          "internalType": "uint256",
          "name": "proposalId",
          "type": "uint256"
        }
      ],
      "name": "Voted",
      "type": "event"
    },
    {
      "anonymous": false,
      "inputs": [
        {
          "indexed": false,
          "internalType": "address",
          "name": "voterAddress",
          "type": "address"
        }
      ],
      "name": "VoterRegistered",
      "type": "event"
    },
    {
      "anonymous": false,
      "inputs": [
        {
          "indexed": false,
          "internalType": "enum Voting.WorkflowStatus",
          "name": "previousStatus",
          "type": "uint8"
        },
        {
          "indexed": false,
          "internalType": "enum Voting.WorkflowStatus",
          "name": "newStatus",
          "type": "uint8"
        }
      ],
      "name": "WorkflowStatusChange",
      "type": "event"
    },
    {
      "inputs": [],
      "name": "owner",
      "outputs": [
        {
          "internalType": "address",
          "name": "",
          "type": "address"
        }
      ],
      "stateMutability": "view",
      "type": "function",
      "constant": true
    },
    {
      "inputs": [],
      "name": "renounceOwnership",
      "outputs": [],
      "stateMutability": "nonpayable",
      "type": "function"
    },
    {
      "inputs": [
        {
          "internalType": "address",
          "name": "newOwner",
          "type": "address"
        }
      ],
      "name": "transferOwnership",
      "outputs": [],
      "stateMutability": "nonpayable",
      "type": "function"
    },
    {
      "inputs": [],
      "name": "winningProposalID",
      "outputs": [
        {
          "internalType": "uint256",
          "name": "",
          "type": "uint256"
        }
      ],
      "stateMutability": "view",
      "type": "function",
      "constant": true
    },
    {
      "inputs": [],
      "name": "workflowStatus",
      "outputs": [
        {
          "internalType": "enum Voting.WorkflowStatus",
          "name": "",
          "type": "uint8"
        }
      ],
      "stateMutability": "view",
      "type": "function",
      "constant": true
    },
    {
      "inputs": [
        {
          "internalType": "address",
          "name": "_addr",
          "type": "address"
        }
      ],
      "name": "getVoter",
      "outputs": [
        {
          "components": [
            {
              "internalType": "bool",
              "name": "isRegistered",
              "type": "bool"
            },
            {
              "internalType": "bool",
              "name": "hasVoted",
              "type": "bool"
            },
            {
              "internalType": "uint256",
              "name": "votedProposalId",
              "type": "uint256"
            }
          ],
          "internalType": "struct Voting.Voter",
          "name": "",
          "type": "tuple"
        }
      ],
      "stateMutability": "view",
      "type": "function",
      "constant": true
    },
    {
      "inputs": [
        {
          "internalType": "uint256",
          "name": "_id",
          "type": "uint256"
        }
      ],
      "name": "getOneProposal",
      "outputs": [
        {
          "components": [
            {
              "internalType": "string",
              "name": "description",
              "type": "string"
            },
            {
              "internalType": "uint256",
              "name": "voteCount",
              "type": "uint256"
            }
          ],
          "internalType": "struct Voting.Proposal",
          "name": "",
          "type": "tuple"
        }
      ],
      "stateMutability": "view",
      "type": "function",
      "constant": true
    },
    {
      "inputs": [
        {
          "internalType": "address",
          "name": "_addr",
          "type": "address"
        }
      ],
      "name": "addVoter",
      "outputs": [],
      "stateMutability": "nonpayable",
      "type": "function"
    },
    {
      "inputs": [
        {
          "internalType": "string",
          "name": "_desc",
          "type": "string"
        }
      ],
      "name": "addProposal",
      "outputs": [],
      "stateMutability": "nonpayable",
      "type": "function"
    },
    {
      "inputs": [
        {
          "internalType": "uint256",
          "name": "_id",
          "type": "uint256"
        }
      ],
      "name": "setVote",
      "outputs": [],
      "stateMutability": "nonpayable",
      "type": "function"
    },
    {
      "inputs": [],
      "name": "startProposalsRegistering",
      "outputs": [],
      "stateMutability": "nonpayable",
      "type": "function"
    },
    {
      "inputs": [],
      "name": "endProposalsRegistering",
      "outputs": [],
      "stateMutability": "nonpayable",
      "type": "function"
    },
    {
      "inputs": [],
      "name": "startVotingSession",
      "outputs": [],
      "stateMutability": "nonpayable",
      "type": "function"
    },
    {
      "inputs": [],
      "name": "endVotingSession",
      "outputs": [],
      "stateMutability": "nonpayable",
      "type": "function"
    },
    {
      "inputs": [],
      "name": "tallyVotes",
      "outputs": [],
      "stateMutability": "nonpayable",
      "type": "function"
    },
    {
      "inputs": [
        {
          "internalType": "uint256",
          "name": "shunkSize",
          "type": "uint256"
        }
      ],
      "name": "tallyVotesShunk",
      "outputs": [],
      "stateMutability": "nonpayable",
      "type": "function"
    }
  ],
  "bytecode": "0x60806040523480156200001157600080fd5b5062000032620000266200003860201b60201c565b6200004060201b60201c565b62000104565b600033905090565b60008060009054906101000a900473ffffffffffffffffffffffffffffffffffffffff169050816000806101000a81548173ffffffffffffffffffffffffffffffffffffffff021916908373ffffffffffffffffffffffffffffffffffffffff1602179055508173ffffffffffffffffffffffffffffffffffffffff168173ffffffffffffffffffffffffffffffffffffffff167f8be0079c531659141344cd1fd0a4f28419497f9722a3daafe3b4186f6b6457e060405160405180910390a35050565b6126d980620001146000396000f3fe608060405234801561001057600080fd5b50600436106101005760003560e01c8063a7bfab1611610097578063d4f50f9811610066578063d4f50f9814610215578063ee74c67814610245578063f2fde38b1461024f578063f4ab9adf1461026b57610100565b8063a7bfab16146101d9578063bdc01431146101e3578063c7038a4e14610201578063c88af42f1461020b57610100565b80638da5cb5b116100d35780638da5cb5b14610151578063a1edffa21461016f578063a27697bc1461018d578063a2788cce146101a957610100565b8063230796ae146101055780632fdae3c514610121578063378a21781461013d578063715018a614610147575b600080fd5b61011f600480360381019061011a919061185c565b610287565b005b61013b600480360381019061013691906119cf565b610582565b005b6101456107c5565b005b61014f610853565b005b6101596108db565b6040516101669190611a59565b60405180910390f35b610177610904565b6040516101849190611aeb565b60405180910390f35b6101a760048036038101906101a2919061185c565b610917565b005b6101c360048036038101906101be919061185c565b61099f565b6040516101d09190611bda565b60405180910390f35b6101e1610b06565b005b6101eb610c5f565b6040516101f89190611c0b565b60405180910390f35b610209610c65565b005b610213610dbf565b005b61022f600480360381019061022a9190611c52565b610f19565b60405161023c9190611cdc565b60405180910390f35b61024d611041565b005b61026960048036038101906102649190611c52565b61119b565b005b61028560048036038101906102809190611c52565b611292565b005b600660003373ffffffffffffffffffffffffffffffffffffffff1673ffffffffffffffffffffffffffffffffffffffff16815260200190815260200160002060000160009054906101000a900460ff16610316576040517f08c379a000000000000000000000000000000000000000000000000000000000815260040161030d90611d54565b60405180910390fd5b6003600581111561032a57610329611a74565b5b600460009054906101000a900460ff16600581111561034c5761034b611a74565b5b1461038c576040517f08c379a000000000000000000000000000000000000000000000000000000000815260040161038390611de6565b60405180910390fd5b60011515600660003373ffffffffffffffffffffffffffffffffffffffff1673ffffffffffffffffffffffffffffffffffffffff16815260200190815260200160002060000160019054906101000a900460ff16151503610422576040517f08c379a000000000000000000000000000000000000000000000000000000000815260040161041990611e52565b60405180910390fd5b6005805490508110610469576040517f08c379a000000000000000000000000000000000000000000000000000000000815260040161046090611ebe565b60405180910390fd5b80600660003373ffffffffffffffffffffffffffffffffffffffff1673ffffffffffffffffffffffffffffffffffffffff168152602001908152602001600020600101819055506001600660003373ffffffffffffffffffffffffffffffffffffffff1673ffffffffffffffffffffffffffffffffffffffff16815260200190815260200160002060000160016101000a81548160ff0219169083151502179055506005818154811061051f5761051e611ede565b5b9060005260206000209060020201600101600081548092919061054190611f3c565b91905055507f4d99b957a2bc29a30ebd96a7be8e68fe50a3c701db28a91436490b7d53870ca43382604051610577929190611f84565b60405180910390a150565b600660003373ffffffffffffffffffffffffffffffffffffffff1673ffffffffffffffffffffffffffffffffffffffff16815260200190815260200160002060000160009054906101000a900460ff16610611576040517f08c379a000000000000000000000000000000000000000000000000000000000815260040161060890611d54565b60405180910390fd5b6001600581111561062557610624611a74565b5b600460009054906101000a900460ff16600581111561064757610646611a74565b5b14610687576040517f08c379a000000000000000000000000000000000000000000000000000000000815260040161067e90611ff9565b60405180910390fd5b6040516020016106969061203f565b60405160208183030381529060405280519060200120816040516020016106bd9190612098565b6040516020818303038152906040528051906020012003610713576040517f08c379a000000000000000000000000000000000000000000000000000000000815260040161070a9061212c565b60405180910390fd5b61071b611730565b8181600001819052506005819080600181540180825580915050600190039060005260206000209060020201600090919091909150600082015181600001908051906020019061076c92919061174a565b506020820151816001015550507f92e393e9b54e2f801d3ea4beb0c5e71a21cc34a5d34b77d0fb8a3aa1650dc18f60016005805490506107ac919061214c565b6040516107b99190611c0b565b60405180910390a15050565b6107cd6114af565b73ffffffffffffffffffffffffffffffffffffffff166107eb6108db565b73ffffffffffffffffffffffffffffffffffffffff1614610841576040517f08c379a0000000000000000000000000000000000000000000000000000000008152600401610838906121cc565b60405180910390fd5b6000600a9050610850816114b7565b50565b61085b6114af565b73ffffffffffffffffffffffffffffffffffffffff166108796108db565b73ffffffffffffffffffffffffffffffffffffffff16146108cf576040517f08c379a00000000000000000000000000000000000000000000000000000000081526004016108c6906121cc565b60405180910390fd5b6108d9600061166c565b565b60008060009054906101000a900473ffffffffffffffffffffffffffffffffffffffff16905090565b600460009054906101000a900460ff1681565b61091f6114af565b73ffffffffffffffffffffffffffffffffffffffff1661093d6108db565b73ffffffffffffffffffffffffffffffffffffffff1614610993576040517f08c379a000000000000000000000000000000000000000000000000000000000815260040161098a906121cc565b60405180910390fd5b61099c816114b7565b50565b6109a7611730565b600660003373ffffffffffffffffffffffffffffffffffffffff1673ffffffffffffffffffffffffffffffffffffffff16815260200190815260200160002060000160009054906101000a900460ff16610a36576040517f08c379a0000000000000000000000000000000000000000000000000000000008152600401610a2d90611d54565b60405180910390fd5b60058281548110610a4a57610a49611ede565b5b9060005260206000209060020201604051806040016040529081600082018054610a739061221b565b80601f0160208091040260200160405190810160405280929190818152602001828054610a9f9061221b565b8015610aec5780601f10610ac157610100808354040283529160200191610aec565b820191906000526020600020905b815481529060010190602001808311610acf57829003601f168201915b505050505081526020016001820154815250509050919050565b610b0e6114af565b73ffffffffffffffffffffffffffffffffffffffff16610b2c6108db565b73ffffffffffffffffffffffffffffffffffffffff1614610b82576040517f08c379a0000000000000000000000000000000000000000000000000000000008152600401610b79906121cc565b60405180910390fd5b60036005811115610b9657610b95611a74565b5b600460009054906101000a900460ff166005811115610bb857610bb7611a74565b5b14610bf8576040517f08c379a0000000000000000000000000000000000000000000000000000000008152600401610bef90611de6565b60405180910390fd5b60048060006101000a81548160ff02191690836005811115610c1d57610c1c611a74565b5b02179055507f0a97a4ee45751e2abf3e4fc8946939630b11b371ea8ae39ccdc3056e98f5cc3f60036004604051610c5592919061224c565b60405180910390a1565b60015481565b610c6d6114af565b73ffffffffffffffffffffffffffffffffffffffff16610c8b6108db565b73ffffffffffffffffffffffffffffffffffffffff1614610ce1576040517f08c379a0000000000000000000000000000000000000000000000000000000008152600401610cd8906121cc565b60405180910390fd5b60006005811115610cf557610cf4611a74565b5b600460009054906101000a900460ff166005811115610d1757610d16611a74565b5b14610d57576040517f08c379a0000000000000000000000000000000000000000000000000000000008152600401610d4e906122e7565b60405180910390fd5b6001600460006101000a81548160ff02191690836005811115610d7d57610d7c611a74565b5b02179055507f0a97a4ee45751e2abf3e4fc8946939630b11b371ea8ae39ccdc3056e98f5cc3f60006001604051610db592919061224c565b60405180910390a1565b610dc76114af565b73ffffffffffffffffffffffffffffffffffffffff16610de56108db565b73ffffffffffffffffffffffffffffffffffffffff1614610e3b576040517f08c379a0000000000000000000000000000000000000000000000000000000008152600401610e32906121cc565b60405180910390fd5b60016005811115610e4f57610e4e611a74565b5b600460009054906101000a900460ff166005811115610e7157610e70611a74565b5b14610eb1576040517f08c379a0000000000000000000000000000000000000000000000000000000008152600401610ea890612379565b60405180910390fd5b6002600460006101000a81548160ff02191690836005811115610ed757610ed6611a74565b5b02179055507f0a97a4ee45751e2abf3e4fc8946939630b11b371ea8ae39ccdc3056e98f5cc3f60016002604051610f0f92919061224c565b60405180910390a1565b610f216117d0565b600660003373ffffffffffffffffffffffffffffffffffffffff1673ffffffffffffffffffffffffffffffffffffffff16815260200190815260200160002060000160009054906101000a900460ff16610fb0576040517f08c379a0000000000000000000000000000000000000000000000000000000008152600401610fa790611d54565b60405180910390fd5b600660008373ffffffffffffffffffffffffffffffffffffffff1673ffffffffffffffffffffffffffffffffffffffff1681526020019081526020016000206040518060600160405290816000820160009054906101000a900460ff161515151581526020016000820160019054906101000a900460ff161515151581526020016001820154815250509050919050565b6110496114af565b73ffffffffffffffffffffffffffffffffffffffff166110676108db565b73ffffffffffffffffffffffffffffffffffffffff16146110bd576040517f08c379a00000000000000000000000000000000000000000000000000000000081526004016110b4906121cc565b60405180910390fd5b600260058111156110d1576110d0611a74565b5b600460009054906101000a900460ff1660058111156110f3576110f2611a74565b5b14611133576040517f08c379a000000000000000000000000000000000000000000000000000000000815260040161112a9061240b565b60405180910390fd5b6003600460006101000a81548160ff0219169083600581111561115957611158611a74565b5b02179055507f0a97a4ee45751e2abf3e4fc8946939630b11b371ea8ae39ccdc3056e98f5cc3f6002600360405161119192919061224c565b60405180910390a1565b6111a36114af565b73ffffffffffffffffffffffffffffffffffffffff166111c16108db565b73ffffffffffffffffffffffffffffffffffffffff1614611217576040517f08c379a000000000000000000000000000000000000000000000000000000000815260040161120e906121cc565b60405180910390fd5b600073ffffffffffffffffffffffffffffffffffffffff168173ffffffffffffffffffffffffffffffffffffffff1603611286576040517f08c379a000000000000000000000000000000000000000000000000000000000815260040161127d9061249d565b60405180910390fd5b61128f8161166c565b50565b61129a6114af565b73ffffffffffffffffffffffffffffffffffffffff166112b86108db565b73ffffffffffffffffffffffffffffffffffffffff161461130e576040517f08c379a0000000000000000000000000000000000000000000000000000000008152600401611305906121cc565b60405180910390fd5b6000600581111561132257611321611a74565b5b600460009054906101000a900460ff16600581111561134457611343611a74565b5b14611384576040517f08c379a000000000000000000000000000000000000000000000000000000000815260040161137b9061252f565b60405180910390fd5b60011515600660008373ffffffffffffffffffffffffffffffffffffffff1673ffffffffffffffffffffffffffffffffffffffff16815260200190815260200160002060000160009054906101000a900460ff1615150361141a576040517f08c379a00000000000000000000000000000000000000000000000000000000081526004016114119061259b565b60405180910390fd5b6001600660008373ffffffffffffffffffffffffffffffffffffffff1673ffffffffffffffffffffffffffffffffffffffff16815260200190815260200160002060000160006101000a81548160ff0219169083151502179055507fb6be2187d059cc2a55fe29e0e503b566e1e0f8c8780096e185429350acffd3dd816040516114a49190611a59565b60405180910390a150565b600033905090565b600460058111156114cb576114ca611a74565b5b600460009054906101000a900460ff1660058111156114ed576114ec611a74565b5b1461152d576040517f08c379a00000000000000000000000000000000000000000000000000000000081526004016115249061262d565b60405180910390fd5b600060035490505b60058054905081108015611555575081600354611552919061264d565b81105b156115c9576005600254815481106115705761156f611ede565b5b9060005260206000209060020201600101546005828154811061159657611595611ede565b5b90600052602060002090600202016001015411156115b657806002819055505b80806115c190611f3c565b915050611535565b5080600360008282546115dc919061264d565b925050819055506005805490506003541061166957600254600560016000600460008491906101000a81548160ff0219169083600581111561162157611620611a74565b5b0217905550839190505550507f0a97a4ee45751e2abf3e4fc8946939630b11b371ea8ae39ccdc3056e98f5cc3f6004600560405161166092919061224c565b60405180910390a15b50565b60008060009054906101000a900473ffffffffffffffffffffffffffffffffffffffff169050816000806101000a81548173ffffffffffffffffffffffffffffffffffffffff021916908373ffffffffffffffffffffffffffffffffffffffff1602179055508173ffffffffffffffffffffffffffffffffffffffff168173ffffffffffffffffffffffffffffffffffffffff167f8be0079c531659141344cd1fd0a4f28419497f9722a3daafe3b4186f6b6457e060405160405180910390a35050565b604051806040016040528060608152602001600081525090565b8280546117569061221b565b90600052602060002090601f01602090048101928261177857600085556117bf565b82601f1061179157805160ff19168380011785556117bf565b828001600101855582156117bf579182015b828111156117be5782518255916020019190600101906117a3565b5b5090506117cc91906117f5565b5090565b6040518060600160405280600015158152602001600015158152602001600081525090565b5b8082111561180e5760008160009055506001016117f6565b5090565b6000604051905090565b600080fd5b600080fd5b6000819050919050565b61183981611826565b811461184457600080fd5b50565b60008135905061185681611830565b92915050565b6000602082840312156118725761187161181c565b5b600061188084828501611847565b91505092915050565b600080fd5b600080fd5b6000601f19601f8301169050919050565b7f4e487b7100000000000000000000000000000000000000000000000000000000600052604160045260246000fd5b6118dc82611893565b810181811067ffffffffffffffff821117156118fb576118fa6118a4565b5b80604052505050565b600061190e611812565b905061191a82826118d3565b919050565b600067ffffffffffffffff82111561193a576119396118a4565b5b61194382611893565b9050602081019050919050565b82818337600083830152505050565b600061197261196d8461191f565b611904565b90508281526020810184848401111561198e5761198d61188e565b5b611999848285611950565b509392505050565b600082601f8301126119b6576119b5611889565b5b81356119c684826020860161195f565b91505092915050565b6000602082840312156119e5576119e461181c565b5b600082013567ffffffffffffffff811115611a0357611a02611821565b5b611a0f848285016119a1565b91505092915050565b600073ffffffffffffffffffffffffffffffffffffffff82169050919050565b6000611a4382611a18565b9050919050565b611a5381611a38565b82525050565b6000602082019050611a6e6000830184611a4a565b92915050565b7f4e487b7100000000000000000000000000000000000000000000000000000000600052602160045260246000fd5b60068110611ab457611ab3611a74565b5b50565b6000819050611ac582611aa3565b919050565b6000611ad582611ab7565b9050919050565b611ae581611aca565b82525050565b6000602082019050611b006000830184611adc565b92915050565b600081519050919050565b600082825260208201905092915050565b60005b83811015611b40578082015181840152602081019050611b25565b83811115611b4f576000848401525b50505050565b6000611b6082611b06565b611b6a8185611b11565b9350611b7a818560208601611b22565b611b8381611893565b840191505092915050565b611b9781611826565b82525050565b60006040830160008301518482036000860152611bba8282611b55565b9150506020830151611bcf6020860182611b8e565b508091505092915050565b60006020820190508181036000830152611bf48184611b9d565b905092915050565b611c0581611826565b82525050565b6000602082019050611c206000830184611bfc565b92915050565b611c2f81611a38565b8114611c3a57600080fd5b50565b600081359050611c4c81611c26565b92915050565b600060208284031215611c6857611c6761181c565b5b6000611c7684828501611c3d565b91505092915050565b60008115159050919050565b611c9481611c7f565b82525050565b606082016000820151611cb06000850182611c8b565b506020820151611cc36020850182611c8b565b506040820151611cd66040850182611b8e565b50505050565b6000606082019050611cf16000830184611c9a565b92915050565b600082825260208201905092915050565b7f596f75277265206e6f74206120766f7465720000000000000000000000000000600082015250565b6000611d3e601283611cf7565b9150611d4982611d08565b602082019050919050565b60006020820190508181036000830152611d6d81611d31565b9050919050565b7f566f74696e672073657373696f6e20686176656e74207374617274656420796560008201527f7400000000000000000000000000000000000000000000000000000000000000602082015250565b6000611dd0602183611cf7565b9150611ddb82611d74565b604082019050919050565b60006020820190508181036000830152611dff81611dc3565b9050919050565b7f596f75206861766520616c726561647920766f74656400000000000000000000600082015250565b6000611e3c601683611cf7565b9150611e4782611e06565b602082019050919050565b60006020820190508181036000830152611e6b81611e2f565b9050919050565b7f50726f706f73616c206e6f7420666f756e640000000000000000000000000000600082015250565b6000611ea8601283611cf7565b9150611eb382611e72565b602082019050919050565b60006020820190508181036000830152611ed781611e9b565b9050919050565b7f4e487b7100000000000000000000000000000000000000000000000000000000600052603260045260246000fd5b7f4e487b7100000000000000000000000000000000000000000000000000000000600052601160045260246000fd5b6000611f4782611826565b91507fffffffffffffffffffffffffffffffffffffffffffffffffffffffffffffffff8203611f7957611f78611f0d565b5b600182019050919050565b6000604082019050611f996000830185611a4a565b611fa66020830184611bfc565b9392505050565b7f50726f706f73616c7320617265206e6f7420616c6c6f77656420796574000000600082015250565b6000611fe3601d83611cf7565b9150611fee82611fad565b602082019050919050565b6000602082019050818103600083015261201281611fd6565b9050919050565b50565b6000612029600083611cf7565b915061203482612019565b600082019050919050565b600060208201905081810360008301526120588161201c565b9050919050565b600061206a82611b06565b6120748185611cf7565b9350612084818560208601611b22565b61208d81611893565b840191505092915050565b600060208201905081810360008301526120b2818461205f565b905092915050565b7f566f7573206e6520706f7576657a20706173206e65207269656e2070726f706f60008201527f7365720000000000000000000000000000000000000000000000000000000000602082015250565b6000612116602383611cf7565b9150612121826120ba565b604082019050919050565b6000602082019050818103600083015261214581612109565b9050919050565b600061215782611826565b915061216283611826565b92508282101561217557612174611f0d565b5b828203905092915050565b7f4f776e61626c653a2063616c6c6572206973206e6f7420746865206f776e6572600082015250565b60006121b6602083611cf7565b91506121c182612180565b602082019050919050565b600060208201905081810360008301526121e5816121a9565b9050919050565b7f4e487b7100000000000000000000000000000000000000000000000000000000600052602260045260246000fd5b6000600282049050600182168061223357607f821691505b602082108103612246576122456121ec565b5b50919050565b60006040820190506122616000830185611adc565b61226e6020830184611adc565b9392505050565b7f5265676973746572696e672070726f706f73616c732063616e7420626520737460008201527f6172746564206e6f770000000000000000000000000000000000000000000000602082015250565b60006122d1602983611cf7565b91506122dc82612275565b604082019050919050565b60006020820190508181036000830152612300816122c4565b9050919050565b7f5265676973746572696e672070726f706f73616c7320686176656e742073746160008201527f7274656420796574000000000000000000000000000000000000000000000000602082015250565b6000612363602883611cf7565b915061236e82612307565b604082019050919050565b6000602082019050818103600083015261239281612356565b9050919050565b7f5265676973746572696e672070726f706f73616c73207068617365206973206e60008201527f6f742066696e6973686564000000000000000000000000000000000000000000602082015250565b60006123f5602b83611cf7565b915061240082612399565b604082019050919050565b60006020820190508181036000830152612424816123e8565b9050919050565b7f4f776e61626c653a206e6577206f776e657220697320746865207a65726f206160008201527f6464726573730000000000000000000000000000000000000000000000000000602082015250565b6000612487602683611cf7565b91506124928261242b565b604082019050919050565b600060208201905081810360008301526124b68161247a565b9050919050565b7f566f7465727320726567697374726174696f6e206973206e6f74206f70656e2060008201527f7965740000000000000000000000000000000000000000000000000000000000602082015250565b6000612519602383611cf7565b9150612524826124bd565b604082019050919050565b600060208201905081810360008301526125488161250c565b9050919050565b7f416c726561647920726567697374657265640000000000000000000000000000600082015250565b6000612585601283611cf7565b91506125908261254f565b602082019050919050565b600060208201905081810360008301526125b481612578565b9050919050565b7f43757272656e7420737461747573206973206e6f7420766f74696e672073657360008201527f73696f6e20656e64656400000000000000000000000000000000000000000000602082015250565b6000612617602a83611cf7565b9150612622826125bb565b604082019050919050565b600060208201905081810360008301526126468161260a565b9050919050565b600061265882611826565b915061266383611826565b9250827fffffffffffffffffffffffffffffffffffffffffffffffffffffffffffffffff0382111561269857612697611f0d565b5b82820190509291505056fea2646970667358221220bf9d555fdd6299ff55aafd7dafe5a8e27966bbba0f9bb6eee0d7dc4546ee5a1d64736f6c634300080d0033",
  "immutableReferences": {},
  "source": "// SPDX-License-Identifier: MIT\n\npragma solidity 0.8.13;\nimport \"@openzeppelin/contracts/access/Ownable.sol\";\n\n/** \n    @title Voting Contract\n    @author Fabien Berthom\n    @notice Allow owner to add voters; voters can add proposal and vote; the owner compute the winner proposal\n*/\ncontract Voting is Ownable {\n\n    // arrays for draw, uint for single\n    // uint[] winningProposalsID;\n    // Proposal[] public winningProposals;\n    uint public winningProposalID;\n    uint winningProposalIDTmp;\n    uint shunkIndex;\n\n    struct Voter {\n        bool isRegistered;\n        bool hasVoted;\n        uint votedProposalId;\n    }\n\n    struct Proposal {\n        string description;\n        uint voteCount;\n    }\n\n    enum  WorkflowStatus {\n        RegisteringVoters,\n        ProposalsRegistrationStarted,\n        ProposalsRegistrationEnded,\n        VotingSessionStarted,\n        VotingSessionEnded,\n        VotesTallied\n    }\n\n    WorkflowStatus public workflowStatus;\n    Proposal[] proposalsArray;\n    mapping (address => Voter) voters;\n\n    event VoterRegistered(address voterAddress); \n    event WorkflowStatusChange(WorkflowStatus previousStatus, WorkflowStatus newStatus);\n    event ProposalRegistered(uint proposalId);\n    event Voted (address voter, uint proposalId);\n\n    /**\n     * @dev Throws if called by any account other than a registered voter.\n     */\n    modifier onlyVoters() {\n        require(voters[msg.sender].isRegistered, \"You're not a voter\");\n        _;\n    }\n    \n    // on peut faire un modifier pour les tats\n\n    // ::::::::::::: GETTERS ::::::::::::: //\n    /** \n        getVoter method\n        @param _addr the addres of voter\n        @return the voter specified by an address\n        @dev Throws if caller is not a voter\n    */    \n    function getVoter(address _addr) external onlyVoters view returns (Voter memory) {\n        return voters[_addr];\n    }\n    \n    /** \n        getOneProposal method\n        @param _id index of a proposal\n        @return the propasal specified by an _id index\n        @dev Throws if caller is not a voter\n    */\n    function getOneProposal(uint _id) external onlyVoters view returns (Proposal memory) {\n        return proposalsArray[_id];\n    }\n\n \n    // ::::::::::::: REGISTRATION ::::::::::::: // \n    /**\n        addVoter Method\n        @notice add a voter to the registered voters\n        @param _addr address of new voter\n        @dev Throws if caller is not the contract owner\n        @dev Throws if called by an already registered voter\n        @dev Throws if workflowStatus is not equals to RegisteringVoters\n    */\n    function addVoter(address _addr) external onlyOwner {\n        require(workflowStatus == WorkflowStatus.RegisteringVoters, 'Voters registration is not open yet');\n        require(voters[_addr].isRegistered != true, 'Already registered');\n    \n        voters[_addr].isRegistered = true;\n        emit VoterRegistered(_addr);\n    }\n \n    /* facultatif\n     * function deleteVoter(address _addr) external onlyOwner {\n     *   require(workflowStatus == WorkflowStatus.RegisteringVoters, 'Voters registration is not open yet');\n     *   require(voters[_addr].isRegistered == true, 'Not registered.');\n     *   voters[_addr].isRegistered = false;\n     *  emit VoterRegistered(_addr);\n    }*/\n\n    // ::::::::::::: PROPOSAL ::::::::::::: // \n    /**\n        addProposal Method\n        @notice add a new voter proposal to proposals\n        @param _desc description of the new proposal - should not be empty\n        @dev Throws if caller is not a voter\n        @dev Throws if workflowStatus is not equals to ProposalsRegistrationStarted\n        @dev Throws if proposal description is empty\n    */\n    function addProposal(string memory _desc) external onlyVoters {\n        require(workflowStatus == WorkflowStatus.ProposalsRegistrationStarted, 'Proposals are not allowed yet');\n        require(keccak256(abi.encode(_desc)) != keccak256(abi.encode(\"\")), 'Vous ne pouvez pas ne rien proposer'); // facultatif\n        // voir que desc est different des autres\n\n        Proposal memory proposal;\n        proposal.description = _desc;\n        proposalsArray.push(proposal);\n        emit ProposalRegistered(proposalsArray.length-1);\n    }\n\n    // ::::::::::::: VOTE ::::::::::::: //\n    /**\n        setVote Method\n        @notice set a proposal choice of a voter\n        @param _id index of a proposal\n        @dev Throws if caller is not a voter\n        @dev Throws if workflowStatus is not equals to VotingSessionStarted\n        @dev Throws if voter has already voted\n        @dev Throws if the proposalIndex is not known\n    */\n    function setVote( uint _id) external onlyVoters {\n        require(workflowStatus == WorkflowStatus.VotingSessionStarted, 'Voting session havent started yet');\n        require(voters[msg.sender].hasVoted != true, 'You have already voted');\n        require(_id < proposalsArray.length, 'Proposal not found'); // pas oblig, et pas besoin du >0 car uint\n\n        voters[msg.sender].votedProposalId = _id;\n        voters[msg.sender].hasVoted = true;\n        proposalsArray[_id].voteCount++;\n\n        emit Voted(msg.sender, _id);\n    }\n\n    // ::::::::::::: STATE ::::::::::::: //\n\n    /* on pourrait factoriser tout a: par exemple:\n    *\n    *  modifier checkWorkflowStatus(uint  _num) {\n    *    require (workflowStatus=WorkflowStatus(uint(_num)-1, \"bad workflowstatus\");\n    *    require (num != 5, \"il faut lancer tally votes\");\n    *    _;\n    *  }\n    *\n    *  function setWorkflowStatus(WorkflowStatus _num) public checkWorkflowStatus( _num) onlyOwner {\n    *    WorkflowStatus old = workflowStatus;\n    *    workflowStatus = WorkflowStatus(_num);\n    *    emit WorkflowStatusChange(old, workflowStatus);\n    *   } \n    *\n    *  ou plus simplement:\n    *  function nextWorkflowStatus() onlyOwner{\n    *    require (uint(workflowStatus)!=4, \"il faut lancer tallyvotes\");\n    *    WorkflowStatus old = workflowStatus;\n    *    workflowStatus= WorkflowStatus(uint (workflowstatus) + 1);\n    *    emit WorkflowStatusChange(old, workflowStatus);\n    *  }\n    *\n    */ \n\n    /**\n        startProposalsRegistering Method\n        @notice start proposal registering\n        @dev Throws if the caller is not the contract owner\n        @dev Throws if workflowStatus is not equals to RegisteringVoters\n        @dev emit WorkflowStatusChange event\n    */\n    function startProposalsRegistering() external onlyOwner {\n        require(workflowStatus == WorkflowStatus.RegisteringVoters, 'Registering proposals cant be started now');\n        workflowStatus = WorkflowStatus.ProposalsRegistrationStarted;\n        emit WorkflowStatusChange(WorkflowStatus.RegisteringVoters, WorkflowStatus.ProposalsRegistrationStarted);\n    }\n\n    /**\n        endProposalsRegistering Method\n        @notice end proposal registering\n        @dev Throws if the caller is not the contract owner\n        @dev Throws if workflowStatus is not equals to ProposalsRegistrationStarted\n        @dev emit WorkflowStatusChange event\n    */\n    function endProposalsRegistering() external onlyOwner {\n        require(workflowStatus == WorkflowStatus.ProposalsRegistrationStarted, 'Registering proposals havent started yet');\n        workflowStatus = WorkflowStatus.ProposalsRegistrationEnded;\n        emit WorkflowStatusChange(WorkflowStatus.ProposalsRegistrationStarted, WorkflowStatus.ProposalsRegistrationEnded);\n    }\n\n    /**\n        startVotingSession Method\n        @notice start voting session\n        @dev Throws if the caller is not the contract owner\n        @dev Throws if workflowStatus is not equals to ProposalsRegistrationEnded\n        @dev emit WorkflowStatusChange event\n    */\n    function startVotingSession() external onlyOwner {\n        require(workflowStatus == WorkflowStatus.ProposalsRegistrationEnded, 'Registering proposals phase is not finished');\n        workflowStatus = WorkflowStatus.VotingSessionStarted;\n        emit WorkflowStatusChange(WorkflowStatus.ProposalsRegistrationEnded, WorkflowStatus.VotingSessionStarted);\n    }\n\n    /**\n        endVotingSession Method\n        @notice end voting session\n        @dev Throws if the caller is not the contract owner\n        @dev Throws if workflowStatus is not equals to VotingSessionStarted\n        @dev emit WorkflowStatusChange event\n    */\n    function endVotingSession() external onlyOwner {\n        require(workflowStatus == WorkflowStatus.VotingSessionStarted, 'Voting session havent started yet');\n        workflowStatus = WorkflowStatus.VotingSessionEnded;\n        emit WorkflowStatusChange(WorkflowStatus.VotingSessionStarted, WorkflowStatus.VotingSessionEnded);\n    }\n\n    /* function tallyVotesDraw() external onlyOwner {\n       require(workflowStatus == WorkflowStatus.VotingSessionEnded, \"Current status is not voting session ended\");\n        uint highestCount;\n        uint[5]memory winners; // egalite entre 5 personnes max\n        uint nbWinners;\n        for (uint i = 0; i < proposalsArray.length; i++) {\n            if (proposalsArray[i].voteCount == highestCount) {\n                winners[nbWinners]=i;\n                nbWinners++;\n            }\n            if (proposalsArray[i].voteCount > highestCount) {\n                delete winners;\n                winners[0]= i;\n                highestCount = proposalsArray[i].voteCount;\n                nbWinners=1;\n            }\n        }\n        for(uint j=0;j<nbWinners;j++){\n            winningProposalsID.push(winners[j]);\n            winningProposals.push(proposalsArray[winners[j]]);\n        }\n        workflowStatus = WorkflowStatus.VotesTallied;\n        emit WorkflowStatusChange(WorkflowStatus.VotingSessionEnded, WorkflowStatus.VotesTallied);\n    } */\n\n\n    /**\n        tallyVotes Method\n        @notice tally votes and set the winning proposal\n        @dev Throws if the caller is not the contract owner\n        @dev Throws if workflowStatus is not equals to VotingSessionEnded\n        @dev emit WorkflowStatusChange - VotesTallied event if methods ends\n        @dev tallyVotesShunk \n    */\n    function tallyVotes() external onlyOwner {\n        uint defaultShunk = 10; \n        innerTallyVotesShunk(defaultShunk) ;\n    }\n    \n    function tallyVotesShunk(uint shunkSize) public onlyOwner {\n        innerTallyVotesShunk(shunkSize) ;\n    }\n\n    function innerTallyVotesShunk(uint shunkSize) private {\n       require(workflowStatus == WorkflowStatus.VotingSessionEnded, \"Current status is not voting session ended\");\n\n       for (uint256 p = shunkIndex; p < proposalsArray.length && p < shunkIndex + shunkSize; p++) {\n           if (proposalsArray[p].voteCount > proposalsArray[winningProposalIDTmp].voteCount) {\n               winningProposalIDTmp = p;\n          }\n       }\n       shunkIndex += shunkSize;\n       if(shunkIndex >= proposalsArray.length ) {\n        (winningProposalID, workflowStatus) = (winningProposalIDTmp, WorkflowStatus.VotesTallied);\n        emit WorkflowStatusChange(WorkflowStatus.VotingSessionEnded, WorkflowStatus.VotesTallied);\n       }\n    }\n}",
  "sourcePath": "/Users/fabien/alyra/formation/Developpeur-Ethereum-Template/6. Dapp/voting/contracts/voting.sol",
  "compiler": {
    "name": "solc",
    "version": "0.8.13+commit.abaa5c0e.Emscripten.clang"
  },
  "schemaVersion": "3.4.6",
  "updatedAt": "2022-04-21T17:32:38.088Z",
  "networkType": "ethereum",
  "devdoc": {
    "author": "Fabien Berthom",
    "kind": "dev",
    "methods": {
      "addProposal(string)": {
        "details": "Throws if caller is not a voterThrows if workflowStatus is not equals to ProposalsRegistrationStartedThrows if proposal description is empty",
        "params": {
          "_desc": "description of the new proposal - should not be empty"
        }
      },
      "addVoter(address)": {
        "details": "Throws if caller is not the contract ownerThrows if called by an already registered voterThrows if workflowStatus is not equals to RegisteringVoters",
        "params": {
          "_addr": "address of new voter"
        }
      },
      "endProposalsRegistering()": {
        "details": "Throws if the caller is not the contract ownerThrows if workflowStatus is not equals to ProposalsRegistrationStartedemit WorkflowStatusChange event"
      },
      "endVotingSession()": {
        "details": "Throws if the caller is not the contract ownerThrows if workflowStatus is not equals to VotingSessionStartedemit WorkflowStatusChange event"
      },
      "getOneProposal(uint256)": {
        "details": "Throws if caller is not a voter",
        "params": {
          "_id": "index of a proposal"
        },
        "returns": {
          "_0": "the propasal specified by an _id index"
        }
      },
      "getVoter(address)": {
        "details": "Throws if caller is not a voter",
        "params": {
          "_addr": "the addres of voter"
        },
        "returns": {
          "_0": "the voter specified by an address"
        }
      },
      "owner()": {
        "details": "Returns the address of the current owner."
      },
      "renounceOwnership()": {
        "details": "Leaves the contract without owner. It will not be possible to call `onlyOwner` functions anymore. Can only be called by the current owner. NOTE: Renouncing ownership will leave the contract without an owner, thereby removing any functionality that is only available to the owner."
      },
      "setVote(uint256)": {
        "details": "Throws if caller is not a voterThrows if workflowStatus is not equals to VotingSessionStartedThrows if voter has already votedThrows if the proposalIndex is not known",
        "params": {
          "_id": "index of a proposal"
        }
      },
      "startProposalsRegistering()": {
        "details": "Throws if the caller is not the contract ownerThrows if workflowStatus is not equals to RegisteringVotersemit WorkflowStatusChange event"
      },
      "startVotingSession()": {
        "details": "Throws if the caller is not the contract ownerThrows if workflowStatus is not equals to ProposalsRegistrationEndedemit WorkflowStatusChange event"
      },
      "tallyVotes()": {
        "details": "Throws if the caller is not the contract ownerThrows if workflowStatus is not equals to VotingSessionEndedemit WorkflowStatusChange - VotesTallied event if methods endstallyVotesShunk "
      },
      "transferOwnership(address)": {
        "details": "Transfers ownership of the contract to a new account (`newOwner`). Can only be called by the current owner."
      }
    },
    "title": "Voting Contract",
    "version": 1
  },
  "userdoc": {
    "kind": "user",
    "methods": {
      "addProposal(string)": {
        "notice": "addProposal Methodadd a new voter proposal to proposals"
      },
      "addVoter(address)": {
        "notice": "addVoter Methodadd a voter to the registered voters"
      },
      "endProposalsRegistering()": {
        "notice": "endProposalsRegistering Methodend proposal registering"
      },
      "endVotingSession()": {
        "notice": "endVotingSession Methodend voting session"
      },
      "getOneProposal(uint256)": {
        "notice": "getOneProposal method"
      },
      "getVoter(address)": {
        "notice": "getVoter method"
      },
      "setVote(uint256)": {
        "notice": "setVote Methodset a proposal choice of a voter"
      },
      "startProposalsRegistering()": {
        "notice": "startProposalsRegistering Methodstart proposal registering"
      },
      "startVotingSession()": {
        "notice": "startVotingSession Methodstart voting session"
      },
      "tallyVotes()": {
        "notice": "tallyVotes Methodtally votes and set the winning proposal"
      }
    },
    "notice": "Allow owner to add voters; voters can add proposal and vote; the owner compute the winner proposal",
    "version": 1
  }
}